{
  "contractName": "THC_NAZA",
  "abi": [
    {
      "inputs": [],
      "stateMutability": "nonpayable",
      "type": "constructor"
    },
    {
      "anonymous": false,
      "inputs": [
        {
          "indexed": true,
          "internalType": "address",
          "name": "owner",
          "type": "address"
        },
        {
          "indexed": true,
          "internalType": "address",
          "name": "approved",
          "type": "address"
        },
        {
          "indexed": true,
          "internalType": "uint256",
          "name": "tokenId",
          "type": "uint256"
        }
      ],
      "name": "Approval",
      "type": "event"
    },
    {
      "anonymous": false,
      "inputs": [
        {
          "indexed": true,
          "internalType": "address",
          "name": "owner",
          "type": "address"
        },
        {
          "indexed": true,
          "internalType": "address",
          "name": "operator",
          "type": "address"
        },
        {
          "indexed": false,
          "internalType": "bool",
          "name": "approved",
          "type": "bool"
        }
      ],
      "name": "ApprovalForAll",
      "type": "event"
    },
    {
      "anonymous": false,
      "inputs": [
        {
          "indexed": true,
          "internalType": "address",
          "name": "previousOwner",
          "type": "address"
        },
        {
          "indexed": true,
          "internalType": "address",
          "name": "newOwner",
          "type": "address"
        }
      ],
      "name": "OwnershipTransferred",
      "type": "event"
    },
    {
      "anonymous": false,
      "inputs": [
        {
          "indexed": true,
          "internalType": "address",
          "name": "from",
          "type": "address"
        },
        {
          "indexed": true,
          "internalType": "address",
          "name": "to",
          "type": "address"
        },
        {
          "indexed": true,
          "internalType": "uint256",
          "name": "tokenId",
          "type": "uint256"
        }
      ],
      "name": "Transfer",
      "type": "event"
    },
    {
      "inputs": [],
      "name": "THC_NAZA_SUPPLY",
      "outputs": [
        {
          "internalType": "uint256",
          "name": "",
          "type": "uint256"
        }
      ],
      "stateMutability": "view",
      "type": "function"
    },
    {
      "inputs": [
        {
          "internalType": "address",
          "name": "to",
          "type": "address"
        },
        {
          "internalType": "uint256",
          "name": "tokenId",
          "type": "uint256"
        }
      ],
      "name": "approve",
      "outputs": [],
      "stateMutability": "nonpayable",
      "type": "function"
    },
    {
      "inputs": [
        {
          "internalType": "address",
          "name": "owner",
          "type": "address"
        }
      ],
      "name": "balanceOf",
      "outputs": [
        {
          "internalType": "uint256",
          "name": "",
          "type": "uint256"
        }
      ],
      "stateMutability": "view",
      "type": "function"
    },
    {
      "inputs": [
        {
          "internalType": "uint256",
          "name": "tokenId",
          "type": "uint256"
        }
      ],
      "name": "getApproved",
      "outputs": [
        {
          "internalType": "address",
          "name": "",
          "type": "address"
        }
      ],
      "stateMutability": "view",
      "type": "function"
    },
    {
      "inputs": [
        {
          "internalType": "uint256",
          "name": "",
          "type": "uint256"
        }
      ],
      "name": "indices",
      "outputs": [
        {
          "internalType": "uint256",
          "name": "",
          "type": "uint256"
        }
      ],
      "stateMutability": "view",
      "type": "function"
    },
    {
      "inputs": [
        {
          "internalType": "address",
          "name": "owner",
          "type": "address"
        },
        {
          "internalType": "address",
          "name": "operator",
          "type": "address"
        }
      ],
      "name": "isApprovedForAll",
      "outputs": [
        {
          "internalType": "bool",
          "name": "",
          "type": "bool"
        }
      ],
      "stateMutability": "view",
      "type": "function"
    },
    {
      "inputs": [],
      "name": "name",
      "outputs": [
        {
          "internalType": "string",
          "name": "",
          "type": "string"
        }
      ],
      "stateMutability": "view",
      "type": "function"
    },
    {
      "inputs": [],
      "name": "nonce",
      "outputs": [
        {
          "internalType": "uint256",
          "name": "",
          "type": "uint256"
        }
      ],
      "stateMutability": "view",
      "type": "function"
    },
    {
      "inputs": [],
      "name": "numTokens",
      "outputs": [
        {
          "internalType": "uint256",
          "name": "",
          "type": "uint256"
        }
      ],
      "stateMutability": "view",
      "type": "function"
    },
    {
      "inputs": [],
      "name": "owner",
      "outputs": [
        {
          "internalType": "address",
          "name": "",
          "type": "address"
        }
      ],
      "stateMutability": "view",
      "type": "function"
    },
    {
      "inputs": [
        {
          "internalType": "uint256",
          "name": "tokenId",
          "type": "uint256"
        }
      ],
      "name": "ownerOf",
      "outputs": [
        {
          "internalType": "address",
          "name": "",
          "type": "address"
        }
      ],
      "stateMutability": "view",
      "type": "function"
    },
    {
      "inputs": [],
      "name": "renounceOwnership",
      "outputs": [],
      "stateMutability": "nonpayable",
      "type": "function"
    },
    {
      "inputs": [
        {
          "internalType": "address",
          "name": "from",
          "type": "address"
        },
        {
          "internalType": "address",
          "name": "to",
          "type": "address"
        },
        {
          "internalType": "uint256",
          "name": "tokenId",
          "type": "uint256"
        }
      ],
      "name": "safeTransferFrom",
      "outputs": [],
      "stateMutability": "nonpayable",
      "type": "function"
    },
    {
      "inputs": [
        {
          "internalType": "address",
          "name": "from",
          "type": "address"
        },
        {
          "internalType": "address",
          "name": "to",
          "type": "address"
        },
        {
          "internalType": "uint256",
          "name": "tokenId",
          "type": "uint256"
        },
        {
          "internalType": "bytes",
          "name": "_data",
          "type": "bytes"
        }
      ],
      "name": "safeTransferFrom",
      "outputs": [],
      "stateMutability": "nonpayable",
      "type": "function"
    },
    {
      "inputs": [
        {
          "internalType": "address",
          "name": "operator",
          "type": "address"
        },
        {
          "internalType": "bool",
          "name": "approved",
          "type": "bool"
        }
      ],
      "name": "setApprovalForAll",
      "outputs": [],
      "stateMutability": "nonpayable",
      "type": "function"
    },
    {
      "inputs": [
        {
          "internalType": "bytes4",
          "name": "interfaceId",
          "type": "bytes4"
        }
      ],
      "name": "supportsInterface",
      "outputs": [
        {
          "internalType": "bool",
          "name": "",
          "type": "bool"
        }
      ],
      "stateMutability": "view",
      "type": "function"
    },
    {
      "inputs": [],
      "name": "symbol",
      "outputs": [
        {
          "internalType": "string",
          "name": "",
          "type": "string"
        }
      ],
      "stateMutability": "view",
      "type": "function"
    },
    {
      "inputs": [
        {
          "internalType": "address",
          "name": "from",
          "type": "address"
        },
        {
          "internalType": "address",
          "name": "to",
          "type": "address"
        },
        {
          "internalType": "uint256",
          "name": "tokenId",
          "type": "uint256"
        }
      ],
      "name": "transferFrom",
      "outputs": [],
      "stateMutability": "nonpayable",
      "type": "function"
    },
    {
      "inputs": [
        {
          "internalType": "address",
          "name": "newOwner",
          "type": "address"
        }
      ],
      "name": "transferOwnership",
      "outputs": [],
      "stateMutability": "nonpayable",
      "type": "function"
    },
    {
      "inputs": [
        {
          "internalType": "string",
          "name": "baseURI_",
          "type": "string"
        }
      ],
      "name": "setBaseURI",
      "outputs": [],
      "stateMutability": "nonpayable",
      "type": "function"
    },
    {
      "inputs": [
        {
          "internalType": "uint256",
          "name": "tokenId",
          "type": "uint256"
        }
      ],
      "name": "tokenURI",
      "outputs": [
        {
          "internalType": "string",
          "name": "",
          "type": "string"
        }
      ],
      "stateMutability": "view",
      "type": "function"
    },
    {
      "inputs": [
        {
          "internalType": "address",
          "name": "_to",
          "type": "address"
        }
      ],
      "name": "mintGenesis",
      "outputs": [],
      "stateMutability": "payable",
      "type": "function"
    },
    {
      "inputs": [],
      "name": "mintNFT",
      "outputs": [],
      "stateMutability": "payable",
      "type": "function"
    },
    {
      "inputs": [],
      "name": "withdraw",
      "outputs": [],
      "stateMutability": "nonpayable",
      "type": "function"
    }
  ],
  "bytecode": "0x60c06040526000600755670429d069189e0000608090815250678ac7230489e8000060a0908152503480156200003457600080fd5b506040518060400160405280600e81526020017f5472616e7368756d616e436f696e0000000000000000000000000000000000008152506040518060400160405280600381526020017f54484300000000000000000000000000000000000000000000000000000000008152508160009080519060200190620000b99291906200020d565b508060019080519060200190620000d29291906200020d565b50505062000107620000f26200013f640100000000026401000000009004565b62000147640100000000026401000000009004565b6040518060800160405280605a81526020016200395b605a9139600c9080519060200190620001389291906200020d565b5062000322565b600033905090565b6000600660009054906101000a900473ffffffffffffffffffffffffffffffffffffffff16905081600660006101000a81548173ffffffffffffffffffffffffffffffffffffffff021916908373ffffffffffffffffffffffffffffffffffffffff1602179055508173ffffffffffffffffffffffffffffffffffffffff168173ffffffffffffffffffffffffffffffffffffffff167f8be0079c531659141344cd1fd0a4f28419497f9722a3daafe3b4186f6b6457e060405160405180910390a35050565b8280546200021b90620002bd565b90600052602060002090601f0160209004810192826200023f57600085556200028b565b82601f106200025a57805160ff19168380011785556200028b565b828001600101855582156200028b579182015b828111156200028a5782518255916020019190600101906200026d565b5b5090506200029a91906200029e565b5090565b5b80821115620002b95760008160009055506001016200029f565b5090565b60006002820490506001821680620002d657607f821691505b60208210811415620002ed57620002ec620002f3565b5b50919050565b7f4e487b7100000000000000000000000000000000000000000000000000000000600052602260045260246000fd5b60805160a051613613620003486000396000610d7b015260006108b701526136136000f3fe608060405260043610610168576000357c0100000000000000000000000000000000000000000000000000000000900480638da5cb5b116100d3578063a22cb4651161008c578063a22cb4651461046d578063affed0e014610496578063b88d4fde146104c1578063c87b56dd146104ea578063e985e9c514610527578063f2fde38b1461056457610168565b80638da5cb5b146103685780638e499bcf14610393578063924b173e146103be57806394020392146103e957806395d89b4114610405578063a1a953fd1461043057610168565b80633ccfd60b116101255780633ccfd60b1461026e57806342842e0e1461028557806355f804b3146102ae5780636352211e146102d757806370a0823114610314578063715018a61461035157610168565b806301ffc9a71461016d57806306fdde03146101aa578063081812fc146101d5578063095ea7b31461021257806314f710fe1461023b57806323b872dd14610245575b600080fd5b34801561017957600080fd5b50610194600480360381019061018f91906124d7565b61058d565b6040516101a191906129bd565b60405180910390f35b3480156101b657600080fd5b506101bf61066f565b6040516101cc91906129d8565b60405180910390f35b3480156101e157600080fd5b506101fc60048036038101906101f7919061256a565b610701565b6040516102099190612956565b60405180910390f35b34801561021e57600080fd5b506102396004803603810190610234919061249b565b610786565b005b61024361089e565b005b34801561025157600080fd5b5061026c60048036038101906102679190612395565b610953565b005b34801561027a57600080fd5b506102836109b3565b005b34801561029157600080fd5b506102ac60048036038101906102a79190612395565b610a9b565b005b3480156102ba57600080fd5b506102d560048036038101906102d09190612529565b610abb565b005b3480156102e357600080fd5b506102fe60048036038101906102f9919061256a565b610b51565b60405161030b9190612956565b60405180910390f35b34801561032057600080fd5b5061033b60048036038101906103369190612330565b610c03565b6040516103489190612c3a565b60405180910390f35b34801561035d57600080fd5b50610366610cbb565b005b34801561037457600080fd5b5061037d610d43565b60405161038a9190612956565b60405180910390f35b34801561039f57600080fd5b506103a8610d6d565b6040516103b59190612c3a565b60405180910390f35b3480156103ca57600080fd5b506103d3610d73565b6040516103e09190612c3a565b60405180910390f35b61040360048036038101906103fe9190612330565b610d78565b005b34801561041157600080fd5b5061041a610e3e565b60405161042791906129d8565b60405180910390f35b34801561043c57600080fd5b506104576004803603810190610452919061256a565b610ed0565b6040516104649190612c3a565b60405180910390f35b34801561047957600080fd5b50610494600480360381019061048f919061245f565b610ef4565b005b3480156104a257600080fd5b506104ab611075565b6040516104b89190612c3a565b60405180910390f35b3480156104cd57600080fd5b506104e860048036038101906104e391906123e4565b61107b565b005b3480156104f657600080fd5b50610511600480360381019061050c919061256a565b6110dd565b60405161051e91906129d8565b60405180910390f35b34801561053357600080fd5b5061054e60048036038101906105499190612359565b611289565b60405161055b91906129bd565b60405180910390f35b34801561057057600080fd5b5061058b60048036038101906105869190612330565b61131d565b005b60007f80ac58cd000000000000000000000000000000000000000000000000000000007bffffffffffffffffffffffffffffffffffffffffffffffffffffffff1916827bffffffffffffffffffffffffffffffffffffffffffffffffffffffff1916148061065857507f5b5e139f000000000000000000000000000000000000000000000000000000007bffffffffffffffffffffffffffffffffffffffffffffffffffffffff1916827bffffffffffffffffffffffffffffffffffffffffffffffffffffffff1916145b80610668575061066782611415565b5b9050919050565b60606000805461067e90612f2e565b80601f01602080910402602001604051908101604052809291908181526020018280546106aa90612f2e565b80156106f75780601f106106cc576101008083540402835291602001916106f7565b820191906000526020600020905b8154815290600101906020018083116106da57829003601f168201915b5050505050905090565b600061070c8261147f565b61074b576040517f08c379a000000000000000000000000000000000000000000000000000000000815260040161074290612b5a565b60405180910390fd5b6004600083815260200190815260200160002060009054906101000a900473ffffffffffffffffffffffffffffffffffffffff169050919050565b600061079182610b51565b90508073ffffffffffffffffffffffffffffffffffffffff168373ffffffffffffffffffffffffffffffffffffffff161415610802576040517f08c379a00000000000000000000000000000000000000000000000000000000081526004016107f990612bfa565b60405180910390fd5b8073ffffffffffffffffffffffffffffffffffffffff166108216114eb565b73ffffffffffffffffffffffffffffffffffffffff161480610850575061084f8161084a6114eb565b611289565b5b61088f576040517f08c379a000000000000000000000000000000000000000000000000000000000815260040161088690612ada565b60405180910390fd5b61089983836114f3565b505050565b6007600081546108ad90612f91565b91905081905550347f000000000000000000000000000000000000000000000000000000000000000010610916576040517f08c379a000000000000000000000000000000000000000000000000000000000815260040161090d90612a9a565b60405180910390fd5b610920600a6115ac565b600061092c600a6115c2565b905061093833826115d0565b6000610943826115ee565b905061094f82826117e2565b5050565b61096461095e6114eb565b82611856565b6109a3576040517f08c379a000000000000000000000000000000000000000000000000000000000815260040161099a90612c1a565b60405180910390fd5b6109ae838383611934565b505050565b6109bb6114eb565b73ffffffffffffffffffffffffffffffffffffffff166109d9610d43565b73ffffffffffffffffffffffffffffffffffffffff1614610a2f576040517f08c379a0000000000000000000000000000000000000000000000000000000008152600401610a2690612b9a565b60405180910390fd5b60003073ffffffffffffffffffffffffffffffffffffffff1631905060003390508073ffffffffffffffffffffffffffffffffffffffff166108fc839081150290604051600060405180830381858888f19350505050158015610a96573d6000803e3d6000fd5b505050565b610ab68383836040518060200160405280600081525061107b565b505050565b610ac36114eb565b73ffffffffffffffffffffffffffffffffffffffff16610ae1610d43565b73ffffffffffffffffffffffffffffffffffffffff1614610b37576040517f08c379a0000000000000000000000000000000000000000000000000000000008152600401610b2e90612b9a565b60405180910390fd5b80600c9080519060200190610b4d929190612154565b5050565b6000806002600084815260200190815260200160002060009054906101000a900473ffffffffffffffffffffffffffffffffffffffff169050600073ffffffffffffffffffffffffffffffffffffffff168173ffffffffffffffffffffffffffffffffffffffff161415610bfa576040517f08c379a0000000000000000000000000000000000000000000000000000000008152600401610bf190612b1a565b60405180910390fd5b80915050919050565b60008073ffffffffffffffffffffffffffffffffffffffff168273ffffffffffffffffffffffffffffffffffffffff161415610c74576040517f08c379a0000000000000000000000000000000000000000000000000000000008152600401610c6b90612afa565b60405180910390fd5b600360008373ffffffffffffffffffffffffffffffffffffffff1673ffffffffffffffffffffffffffffffffffffffff168152602001908152602001600020549050919050565b610cc36114eb565b73ffffffffffffffffffffffffffffffffffffffff16610ce1610d43565b73ffffffffffffffffffffffffffffffffffffffff1614610d37576040517f08c379a0000000000000000000000000000000000000000000000000000000008152600401610d2e90612b9a565b60405180910390fd5b610d416000611b90565b565b6000600660009054906101000a900473ffffffffffffffffffffffffffffffffffffffff16905090565b60075481565b600281565b347f000000000000000000000000000000000000000000000000000000000000000010610dda576040517f08c379a0000000000000000000000000000000000000000000000000000000008152600401610dd190612a9a565b60405180910390fd5b600760008154610de990612f91565b91905081905550610dfb8160006115d0565b610e3b60006040518060400160405280600181526020017f30000000000000000000000000000000000000000000000000000000000000008152506117e2565b50565b606060018054610e4d90612f2e565b80601f0160208091040260200160405190810160405280929190818152602001828054610e7990612f2e565b8015610ec65780601f10610e9b57610100808354040283529160200191610ec6565b820191906000526020600020905b815481529060010190602001808311610ea957829003601f168201915b5050505050905090565b60098181548110610ee057600080fd5b906000526020600020016000915090505481565b610efc6114eb565b73ffffffffffffffffffffffffffffffffffffffff168273ffffffffffffffffffffffffffffffffffffffff161415610f6a576040517f08c379a0000000000000000000000000000000000000000000000000000000008152600401610f6190612a7a565b60405180910390fd5b8060056000610f776114eb565b73ffffffffffffffffffffffffffffffffffffffff1673ffffffffffffffffffffffffffffffffffffffff16815260200190815260200160002060008473ffffffffffffffffffffffffffffffffffffffff1673ffffffffffffffffffffffffffffffffffffffff16815260200190815260200160002060006101000a81548160ff0219169083151502179055508173ffffffffffffffffffffffffffffffffffffffff166110246114eb565b73ffffffffffffffffffffffffffffffffffffffff167f17307eab39ab6107e8899845ad3d59bd9653f200f220920489ca2b5937696c318360405161106991906129bd565b60405180910390a35050565b60085481565b61108c6110866114eb565b83611856565b6110cb576040517f08c379a00000000000000000000000000000000000000000000000000000000081526004016110c290612c1a565b60405180910390fd5b6110d784848484611c56565b50505050565b60606110e88261147f565b611127576040517f08c379a000000000000000000000000000000000000000000000000000000000815260040161111e90612bda565b60405180910390fd5b6000600b6000848152602001908152602001600020805461114790612f2e565b80601f016020809104026020016040519081016040528092919081815260200182805461117390612f2e565b80156111c05780601f10611195576101008083540402835291602001916111c0565b820191906000526020600020905b8154815290600101906020018083116111a357829003601f168201915b5050505050905060006111d1611cb2565b905060006040518060400160405280600581526020017f2e6a736f6e000000000000000000000000000000000000000000000000000000815250905060008251141561122257829350505050611284565b60008351111561125a57818382604051602001611241939291906128f0565b6040516020818303038152906040529350505050611284565b81858260405160200161126f93929190612921565b60405160208183030381529060405293505050505b919050565b6000600560008473ffffffffffffffffffffffffffffffffffffffff1673ffffffffffffffffffffffffffffffffffffffff16815260200190815260200160002060008373ffffffffffffffffffffffffffffffffffffffff1673ffffffffffffffffffffffffffffffffffffffff16815260200190815260200160002060009054906101000a900460ff16905092915050565b6113256114eb565b73ffffffffffffffffffffffffffffffffffffffff16611343610d43565b73ffffffffffffffffffffffffffffffffffffffff1614611399576040517f08c379a000000000000000000000000000000000000000000000000000000000815260040161139090612b9a565b60405180910390fd5b600073ffffffffffffffffffffffffffffffffffffffff168173ffffffffffffffffffffffffffffffffffffffff161415611409576040517f08c379a000000000000000000000000000000000000000000000000000000000815260040161140090612a1a565b60405180910390fd5b61141281611b90565b50565b60007f01ffc9a7000000000000000000000000000000000000000000000000000000007bffffffffffffffffffffffffffffffffffffffffffffffffffffffff1916827bffffffffffffffffffffffffffffffffffffffffffffffffffffffff1916149050919050565b60008073ffffffffffffffffffffffffffffffffffffffff166002600084815260200190815260200160002060009054906101000a900473ffffffffffffffffffffffffffffffffffffffff1673ffffffffffffffffffffffffffffffffffffffff1614159050919050565b600033905090565b816004600083815260200190815260200160002060006101000a81548173ffffffffffffffffffffffffffffffffffffffff021916908373ffffffffffffffffffffffffffffffffffffffff160217905550808273ffffffffffffffffffffffffffffffffffffffff1661156683610b51565b73ffffffffffffffffffffffffffffffffffffffff167f8c5be1e5ebec7d5bd14f71427d1e84f3dd0314c0f7b2291e5b200ac8c7c3b92560405160405180910390a45050565b6001816000016000828254019250508190555050565b600081600001549050919050565b6115ea828260405180602001604052806000815250611d44565b5050565b60606000821415611636576040518060400160405280600181526020017f300000000000000000000000000000000000000000000000000000000000000081525090506117dd565b600082905060005b6000821461166857808061165190612f91565b915050600a826116619190612dac565b915061163e565b60008167ffffffffffffffff8111156116aa577f4e487b7100000000000000000000000000000000000000000000000000000000600052604160045260246000fd5b6040519080825280601f01601f1916602001820160405280156116dc5781602001600182028036833780820191505090505b50905060008290505b600086146117d5576001816116fa9190612e37565b90506000600a808861170c9190612dac565b6117169190612ddd565b876117219190612e37565b603061172d9190612d75565b90506000817f010000000000000000000000000000000000000000000000000000000000000002905080848481518110611790577f4e487b7100000000000000000000000000000000000000000000000000000000600052603260045260246000fd5b60200101907effffffffffffffffffffffffffffffffffffffffffffffffffffffffffffff1916908160001a905350600a886117cc9190612dac565b975050506116e5565b819450505050505b919050565b6117eb8261147f565b61182a576040517f08c379a000000000000000000000000000000000000000000000000000000000815260040161182190612b7a565b60405180910390fd5b80600b60008481526020019081526020016000209080519060200190611851929190612154565b505050565b60006118618261147f565b6118a0576040517f08c379a000000000000000000000000000000000000000000000000000000000815260040161189790612aba565b60405180910390fd5b60006118ab83610b51565b90508073ffffffffffffffffffffffffffffffffffffffff168473ffffffffffffffffffffffffffffffffffffffff16148061191a57508373ffffffffffffffffffffffffffffffffffffffff1661190284610701565b73ffffffffffffffffffffffffffffffffffffffff16145b8061192b575061192a8185611289565b5b91505092915050565b8273ffffffffffffffffffffffffffffffffffffffff1661195482610b51565b73ffffffffffffffffffffffffffffffffffffffff16146119aa576040517f08c379a00000000000000000000000000000000000000000000000000000000081526004016119a190612bba565b60405180910390fd5b600073ffffffffffffffffffffffffffffffffffffffff168273ffffffffffffffffffffffffffffffffffffffff161415611a1a576040517f08c379a0000000000000000000000000000000000000000000000000000000008152600401611a1190612a5a565b60405180910390fd5b611a25838383611d9f565b611a306000826114f3565b6001600360008573ffffffffffffffffffffffffffffffffffffffff1673ffffffffffffffffffffffffffffffffffffffff1681526020019081526020016000206000828254611a809190612e37565b925050819055506001600360008473ffffffffffffffffffffffffffffffffffffffff1673ffffffffffffffffffffffffffffffffffffffff1681526020019081526020016000206000828254611ad79190612d1f565b92505081905550816002600083815260200190815260200160002060006101000a81548173ffffffffffffffffffffffffffffffffffffffff021916908373ffffffffffffffffffffffffffffffffffffffff160217905550808273ffffffffffffffffffffffffffffffffffffffff168473ffffffffffffffffffffffffffffffffffffffff167fddf252ad1be2c89b69c2b068fc378daa952ba7f163c4a11628f55a4df523b3ef60405160405180910390a4505050565b6000600660009054906101000a900473ffffffffffffffffffffffffffffffffffffffff16905081600660006101000a81548173ffffffffffffffffffffffffffffffffffffffff021916908373ffffffffffffffffffffffffffffffffffffffff1602179055508173ffffffffffffffffffffffffffffffffffffffff168173ffffffffffffffffffffffffffffffffffffffff167f8be0079c531659141344cd1fd0a4f28419497f9722a3daafe3b4186f6b6457e060405160405180910390a35050565b611c61848484611934565b611c6d84848484611da4565b611cac576040517f08c379a0000000000000000000000000000000000000000000000000000000008152600401611ca3906129fa565b60405180910390fd5b50505050565b6060600c8054611cc190612f2e565b80601f0160208091040260200160405190810160405280929190818152602001828054611ced90612f2e565b8015611d3a5780601f10611d0f57610100808354040283529160200191611d3a565b820191906000526020600020905b815481529060010190602001808311611d1d57829003601f168201915b5050505050905090565b611d4e8383611f73565b611d5b6000848484611da4565b611d9a576040517f08c379a0000000000000000000000000000000000000000000000000000000008152600401611d91906129fa565b60405180910390fd5b505050565b505050565b6000611dc58473ffffffffffffffffffffffffffffffffffffffff16612141565b15611f66578373ffffffffffffffffffffffffffffffffffffffff1663150b7a02611dee6114eb565b8786866040518563ffffffff167c0100000000000000000000000000000000000000000000000000000000028152600401611e2c9493929190612971565b602060405180830381600087803b158015611e4657600080fd5b505af1925050508015611e7757506040513d601f19601f82011682018060405250810190611e749190612500565b60015b611efa573d8060008114611ea7576040519150601f19603f3d011682016040523d82523d6000602084013e611eac565b606091505b50600081511415611ef2576040517f08c379a0000000000000000000000000000000000000000000000000000000008152600401611ee9906129fa565b60405180910390fd5b805181602001fd5b63150b7a027c0100000000000000000000000000000000000000000000000000000000027bffffffffffffffffffffffffffffffffffffffffffffffffffffffff1916817bffffffffffffffffffffffffffffffffffffffffffffffffffffffff191614915050611f6b565b600190505b949350505050565b600073ffffffffffffffffffffffffffffffffffffffff168273ffffffffffffffffffffffffffffffffffffffff161415611fe3576040517f08c379a0000000000000000000000000000000000000000000000000000000008152600401611fda90612b3a565b60405180910390fd5b611fec8161147f565b1561202c576040517f08c379a000000000000000000000000000000000000000000000000000000000815260040161202390612a3a565b60405180910390fd5b61203860008383611d9f565b6001600360008473ffffffffffffffffffffffffffffffffffffffff1673ffffffffffffffffffffffffffffffffffffffff16815260200190815260200160002060008282546120889190612d1f565b92505081905550816002600083815260200190815260200160002060006101000a81548173ffffffffffffffffffffffffffffffffffffffff021916908373ffffffffffffffffffffffffffffffffffffffff160217905550808273ffffffffffffffffffffffffffffffffffffffff16600073ffffffffffffffffffffffffffffffffffffffff167fddf252ad1be2c89b69c2b068fc378daa952ba7f163c4a11628f55a4df523b3ef60405160405180910390a45050565b600080823b905060008111915050919050565b82805461216090612f2e565b90600052602060002090601f01602090048101928261218257600085556121c9565b82601f1061219b57805160ff19168380011785556121c9565b828001600101855582156121c9579182015b828111156121c85782518255916020019190600101906121ad565b5b5090506121d691906121da565b5090565b5b808211156121f35760008160009055506001016121db565b5090565b600061220a61220584612c7a565b612c55565b90508281526020810184848401111561222257600080fd5b61222d848285612eec565b509392505050565b600061224861224384612cab565b612c55565b90508281526020810184848401111561226057600080fd5b61226b848285612eec565b509392505050565b60008135905061228281613581565b92915050565b60008135905061229781613598565b92915050565b6000813590506122ac816135af565b92915050565b6000815190506122c1816135af565b92915050565b600082601f8301126122d857600080fd5b81356122e88482602086016121f7565b91505092915050565b600082601f83011261230257600080fd5b8135612312848260208601612235565b91505092915050565b60008135905061232a816135c6565b92915050565b60006020828403121561234257600080fd5b600061235084828501612273565b91505092915050565b6000806040838503121561236c57600080fd5b600061237a85828601612273565b925050602061238b85828601612273565b9150509250929050565b6000806000606084860312156123aa57600080fd5b60006123b886828701612273565b93505060206123c986828701612273565b92505060406123da8682870161231b565b9150509250925092565b600080600080608085870312156123fa57600080fd5b600061240887828801612273565b945050602061241987828801612273565b935050604061242a8782880161231b565b925050606085013567ffffffffffffffff81111561244757600080fd5b612453878288016122c7565b91505092959194509250565b6000806040838503121561247257600080fd5b600061248085828601612273565b925050602061249185828601612288565b9150509250929050565b600080604083850312156124ae57600080fd5b60006124bc85828601612273565b92505060206124cd8582860161231b565b9150509250929050565b6000602082840312156124e957600080fd5b60006124f78482850161229d565b91505092915050565b60006020828403121561251257600080fd5b6000612520848285016122b2565b91505092915050565b60006020828403121561253b57600080fd5b600082013567ffffffffffffffff81111561255557600080fd5b612561848285016122f1565b91505092915050565b60006020828403121561257c57600080fd5b600061258a8482850161231b565b91505092915050565b61259c81612e6b565b82525050565b6125ab81612e7d565b82525050565b60006125bc82612cdc565b6125c68185612cf2565b93506125d6818560208601612efb565b6125df816130a0565b840191505092915050565b60006125f582612ce7565b6125ff8185612d03565b935061260f818560208601612efb565b612618816130a0565b840191505092915050565b600061262e82612ce7565b6126388185612d14565b9350612648818560208601612efb565b80840191505092915050565b6000612661603283612d03565b915061266c826130b1565b604082019050919050565b6000612684602683612d03565b915061268f82613100565b604082019050919050565b60006126a7601c83612d03565b91506126b28261314f565b602082019050919050565b60006126ca602483612d03565b91506126d582613178565b604082019050919050565b60006126ed601983612d03565b91506126f8826131c7565b602082019050919050565b6000612710601f83612d03565b915061271b826131f0565b602082019050919050565b6000612733602c83612d03565b915061273e82613219565b604082019050919050565b6000612756603883612d03565b915061276182613268565b604082019050919050565b6000612779602a83612d03565b9150612784826132b7565b604082019050919050565b600061279c602983612d03565b91506127a782613306565b604082019050919050565b60006127bf602083612d03565b91506127ca82613355565b602082019050919050565b60006127e2602c83612d03565b91506127ed8261337e565b604082019050919050565b6000612805602c83612d03565b9150612810826133cd565b604082019050919050565b6000612828602083612d03565b91506128338261341c565b602082019050919050565b600061284b602983612d03565b915061285682613445565b604082019050919050565b600061286e602f83612d03565b915061287982613494565b604082019050919050565b6000612891602183612d03565b915061289c826134e3565b604082019050919050565b60006128b4603183612d03565b91506128bf82613532565b604082019050919050565b6128d381612ed5565b82525050565b6128ea6128e582612ed5565b612fda565b82525050565b60006128fc8286612623565b91506129088285612623565b91506129148284612623565b9150819050949350505050565b600061292d8286612623565b915061293982856128d9565b6020820191506129498284612623565b9150819050949350505050565b600060208201905061296b6000830184612593565b92915050565b60006080820190506129866000830187612593565b6129936020830186612593565b6129a060408301856128ca565b81810360608301526129b281846125b1565b905095945050505050565b60006020820190506129d260008301846125a2565b92915050565b600060208201905081810360008301526129f281846125ea565b905092915050565b60006020820190508181036000830152612a1381612654565b9050919050565b60006020820190508181036000830152612a3381612677565b9050919050565b60006020820190508181036000830152612a538161269a565b9050919050565b60006020820190508181036000830152612a73816126bd565b9050919050565b60006020820190508181036000830152612a93816126e0565b9050919050565b60006020820190508181036000830152612ab381612703565b9050919050565b60006020820190508181036000830152612ad381612726565b9050919050565b60006020820190508181036000830152612af381612749565b9050919050565b60006020820190508181036000830152612b138161276c565b9050919050565b60006020820190508181036000830152612b338161278f565b9050919050565b60006020820190508181036000830152612b53816127b2565b9050919050565b60006020820190508181036000830152612b73816127d5565b9050919050565b60006020820190508181036000830152612b93816127f8565b9050919050565b60006020820190508181036000830152612bb38161281b565b9050919050565b60006020820190508181036000830152612bd38161283e565b9050919050565b60006020820190508181036000830152612bf381612861565b9050919050565b60006020820190508181036000830152612c1381612884565b9050919050565b60006020820190508181036000830152612c33816128a7565b9050919050565b6000602082019050612c4f60008301846128ca565b92915050565b6000612c5f612c70565b9050612c6b8282612f60565b919050565b6000604051905090565b600067ffffffffffffffff821115612c9557612c94613071565b5b612c9e826130a0565b9050602081019050919050565b600067ffffffffffffffff821115612cc657612cc5613071565b5b612ccf826130a0565b9050602081019050919050565b600081519050919050565b600081519050919050565b600082825260208201905092915050565b600082825260208201905092915050565b600081905092915050565b6000612d2a82612ed5565b9150612d3583612ed5565b9250827fffffffffffffffffffffffffffffffffffffffffffffffffffffffffffffffff03821115612d6a57612d69612fe4565b5b828201905092915050565b6000612d8082612edf565b9150612d8b83612edf565b92508260ff03821115612da157612da0612fe4565b5b828201905092915050565b6000612db782612ed5565b9150612dc283612ed5565b925082612dd257612dd1613013565b5b828204905092915050565b6000612de882612ed5565b9150612df383612ed5565b9250817fffffffffffffffffffffffffffffffffffffffffffffffffffffffffffffffff0483118215151615612e2c57612e2b612fe4565b5b828202905092915050565b6000612e4282612ed5565b9150612e4d83612ed5565b925082821015612e6057612e5f612fe4565b5b828203905092915050565b6000612e7682612eb5565b9050919050565b60008115159050919050565b60007fffffffff0000000000000000000000000000000000000000000000000000000082169050919050565b600073ffffffffffffffffffffffffffffffffffffffff82169050919050565b6000819050919050565b600060ff82169050919050565b82818337600083830152505050565b60005b83811015612f19578082015181840152602081019050612efe565b83811115612f28576000848401525b50505050565b60006002820490506001821680612f4657607f821691505b60208210811415612f5a57612f59613042565b5b50919050565b612f69826130a0565b810181811067ffffffffffffffff82111715612f8857612f87613071565b5b80604052505050565b6000612f9c82612ed5565b91507fffffffffffffffffffffffffffffffffffffffffffffffffffffffffffffffff821415612fcf57612fce612fe4565b5b600182019050919050565b6000819050919050565b7f4e487b7100000000000000000000000000000000000000000000000000000000600052601160045260246000fd5b7f4e487b7100000000000000000000000000000000000000000000000000000000600052601260045260246000fd5b7f4e487b7100000000000000000000000000000000000000000000000000000000600052602260045260246000fd5b7f4e487b7100000000000000000000000000000000000000000000000000000000600052604160045260246000fd5b6000601f19601f8301169050919050565b7f4552433732313a207472616e7366657220746f206e6f6e20455243373231526560008201527f63656976657220696d706c656d656e7465720000000000000000000000000000602082015250565b7f4f776e61626c653a206e6577206f776e657220697320746865207a65726f206160008201527f6464726573730000000000000000000000000000000000000000000000000000602082015250565b7f4552433732313a20746f6b656e20616c7265616479206d696e74656400000000600082015250565b7f4552433732313a207472616e7366657220746f20746865207a65726f2061646460008201527f7265737300000000000000000000000000000000000000000000000000000000602082015250565b7f4552433732313a20617070726f766520746f2063616c6c657200000000000000600082015250565b7f45746865722076616c75652073656e74206973206e6f7420636f727265637400600082015250565b7f4552433732313a206f70657261746f7220717565727920666f72206e6f6e657860008201527f697374656e7420746f6b656e0000000000000000000000000000000000000000602082015250565b7f4552433732313a20617070726f76652063616c6c6572206973206e6f74206f7760008201527f6e6572206e6f7220617070726f76656420666f7220616c6c0000000000000000602082015250565b7f4552433732313a2062616c616e636520717565727920666f7220746865207a6560008201527f726f206164647265737300000000000000000000000000000000000000000000602082015250565b7f4552433732313a206f776e657220717565727920666f72206e6f6e657869737460008201527f656e7420746f6b656e0000000000000000000000000000000000000000000000602082015250565b7f4552433732313a206d696e7420746f20746865207a65726f2061646472657373600082015250565b7f4552433732313a20617070726f76656420717565727920666f72206e6f6e657860008201527f697374656e7420746f6b656e0000000000000000000000000000000000000000602082015250565b7f4552433732314d657461646174613a2055524920736574206f66206e6f6e657860008201527f697374656e7420746f6b656e0000000000000000000000000000000000000000602082015250565b7f4f776e61626c653a2063616c6c6572206973206e6f7420746865206f776e6572600082015250565b7f4552433732313a207472616e73666572206f6620746f6b656e2074686174206960008201527f73206e6f74206f776e0000000000000000000000000000000000000000000000602082015250565b7f4552433732314d657461646174613a2055524920717565727920666f72206e6f60008201527f6e6578697374656e7420746f6b656e0000000000000000000000000000000000602082015250565b7f4552433732313a20617070726f76616c20746f2063757272656e74206f776e6560008201527f7200000000000000000000000000000000000000000000000000000000000000602082015250565b7f4552433732313a207472616e736665722063616c6c6572206973206e6f74206f60008201527f776e6572206e6f7220617070726f766564000000000000000000000000000000602082015250565b61358a81612e6b565b811461359557600080fd5b50565b6135a181612e7d565b81146135ac57600080fd5b50565b6135b881612e89565b81146135c357600080fd5b50565b6135cf81612ed5565b81146135da57600080fd5b5056fea26469706673582212200f05f8fb1bcfc9f51b3508e272c631ccc5e004a298202de58c6db4e38952d1c164736f6c6343000801003368747470733a2f2f676174657761792e70696e6174612e636c6f75642f697066732f516d5969707862314d764d364446344e6356527a474d6878505279574458575841776e6547476f7669344b6864702f5448435f4e415a415f",
  "immutableReferences": {
    "1735": [
      {
        "length": 32,
        "start": 2231
      }
    ],
    "1738": [
      {
        "length": 32,
        "start": 3451
      }
    ]
  },
  "source": "// SPDX-License-Identifier: UNLICENSED\npragma solidity ^0.8.0;\n\n\n//                                    \n//                   \n//                      \n//                                                             \n//                               \n//                              \n//                               \n//                                                             \n//                                            \n//                                           \n//                                                                \n\nimport \"@openzeppelin/contracts/utils/Counters.sol\";\nimport \"@openzeppelin/contracts/access/Ownable.sol\";\n// import \"@openzeppelin/contracts/lifecycle/Pausable.sol\";\nimport \"@openzeppelin/contracts/token/ERC721/ERC721.sol\";\n\n\n// mint id 0 at 10bnb\n// mint id 1-500 at 0.3 bnb\n//NOTE: In remix, send wei, 0.4 BNB = 400000000000000000\n\n\ncontract THC_NAZA is ERC721, Ownable {\n\n    //Tracks numTokens minted\n    uint256 public numTokens = 0;\n\n    //Random number generation\n    uint256 public nonce;\n    uint256[] public indices;\n\n    //Supply\n    uint256 public constant THC_NAZA_SUPPLY = 2;\n\n    //Prices\n    //0.3 BNB\n    uint256 immutable _price = 300000000000000000;\n    //10 BNB\n    uint256 immutable _priceGenesis = 10000000000000000000;\n\n    //TokenId counter\n    using Counters for Counters.Counter;\n    Counters.Counter private _tokenIdentifiers;\n\n    // Optional mapping for token URIs\n    mapping (uint256 => string) private _tokenURIs;\n\n\n    //Constructor\n    constructor() ERC721(\"TranshumanCoin\", \"THC\") {\n        _baseURIextended = \"https://gateway.pinata.cloud/ipfs/QmYipxb1MvM6DF4NcVRzGMhxPRyWDXWXAwneGGovi4Khdp/THC_NAZA_\";\n        // uint tokenId = 0;\n        // string memory baseURI_ = _baseURIextended;\n    }\n\n\n    // Base URI\n    string private _baseURIextended;\n\n\n    function setBaseURI(string memory baseURI_) external onlyOwner() {\n        _baseURIextended = baseURI_;\n    }\n\n    function _setTokenURI(uint256 tokenId, string memory _tokenURI) internal virtual {\n        require(_exists(tokenId), \"ERC721Metadata: URI set of nonexistent token\");\n        _tokenURIs[tokenId] = _tokenURI;\n    }\n\n    function _baseURI() internal view virtual override returns (string memory) {\n        return _baseURIextended;\n    }\n\n    function tokenURI(uint256 tokenId) public view virtual override returns (string memory) {\n        require(_exists(tokenId), \"ERC721Metadata: URI query for nonexistent token\");\n\n        string memory _tokenURI = _tokenURIs[tokenId];\n        string memory base = _baseURI();\n        string memory filetype = \".json\";\n\n        // If there is no base URI, return the token URI.\n        if (bytes(base).length == 0) {\n            return _tokenURI;\n        }\n        // If both are set, concatenate the baseURI and tokenURI (via abi.encodePacked).\n        if (bytes(_tokenURI).length > 0) {\n            return string(abi.encodePacked(base, _tokenURI, filetype));\n        }\n        // If there is a baseURI but no tokenURI, concatenate the tokenID to the baseURI.\n        return string(abi.encodePacked(base, tokenId, filetype));\n    }\n\n\n    /**\n        * @dev Mints 1 Genesis NFT for 10BNB\n    */\n    function mintGenesis(address _to) external payable {\n        require(_priceGenesis < msg.value, \"Ether value sent is not correct\");\n        ++numTokens;\n        _safeMint(_to, 0);\n        _setTokenURI(0,\"0\");\n    }\n\n\n    /**\n        * @dev Mints 1 NFT for 0.3 BNB\n    */\n    function mintNFT() external payable {\n        ++numTokens;\n        // require(totalSupply() < MAX_NFT_SUPPLY, \"Sale has already ended\");\n        require(_price < msg.value, \"Ether value sent is not correct\");\n\n        // Incrementing ID to create new tokenn\n        // _tokenIdentifiers.increment();\n        // uint256 newRECIdentifier = _tokenIdentifiers.current();\n\n        // uint tokenId = 0;\n        // string memory _tokenURI = \"hello\";\n        // string memory tokenURITest = \"hello\";\n        // _safeMint(msg.sender, 0);\n        // string memory id = uint2str(tokenId);\n        // _setTokenURI(0,id);\n        // ++tokenId;\n\n        // Incrementing ID to create new tokenn\n        _tokenIdentifiers.increment();\n        // _safeMint(msg.sender, tokenId);\n        // uint256 newRECIdentifier = _tokenIdentifiers.current();\n        uint256 newRECIdentifier = _tokenIdentifiers.current();\n        // _safeMint(msg.sender, newRECIdentifier);\n        //   _setTokenURI(newRECIdentifier, tokenURI(1));\n\n\n        //RNG\n        // uint256 newRECIdentifier = uint(blockhash(block.number - 1)) % THC_NAZA_SUPPLY - numTokens;\n\n        //TODO - REVIEW we use tokenID twice.. but token ID should match URI anyways\n        _safeMint(msg.sender, newRECIdentifier);\n        string memory uid = uint2str(newRECIdentifier);\n        _setTokenURI(newRECIdentifier, uid);\n    }\n\n\n\n    function uint2str(uint _i) internal pure returns (string memory _uintAsString) {\n        if (_i == 0) {\n            return \"0\";\n        }\n        uint j = _i;\n        uint len;\n        while (j != 0) {\n            len++;\n            j /= 10;\n        }\n        bytes memory bstr = new bytes(len);\n        uint k = len;\n        while (_i != 0) {\n            k = k-1;\n            uint8 temp = (48 + uint8(_i - _i / 10 * 10));\n            bytes1 b1 = bytes1(temp);\n            bstr[k] = b1;\n            _i /= 10;\n        }\n        return string(bstr);\n    }\n\n\n    /**\n    * @dev Withdraw BNB from this contract (Callable by owner)\n    */\n    function withdraw() external onlyOwner {\n        uint balance = address(this).balance;\n        address payable ownerAddress = payable(msg.sender);\n        ownerAddress.transfer(balance);\n    }\n\n    // /**\n    // * @dev Pause\n    // */\n    // function pauser() external virtual onlyOwner {\n    //     super._pause();\n    // }\n\n\n    // /**\n    // * @dev Unpause\n    // */\n    // function unpause() external virtual onlyOwner {\n    //     super._unpause();\n    // }\n}\n\n\n\n\n\n\n\n\n\n    // function randomIndex() internal returns (uint) {\n    //     uint totalSize = THC_NAZA_SUPPLY - numTokens;\n    //     uint index = uint(keccak256(abi.encodePacked(nonce, msg.sender, block.difficulty, block.timestamp))) % totalSize;\n    //     uint value = 0;\n    //     if (indices[index] != 0) {\n    //         value = indices[index];\n    //     } else {\n    //         value = index;\n    //     }\n\n    //     if (indices[totalSize - 1] == 0) {\n\n    //         indices[index] = totalSize - 1;\n    //     } else {\n    //         indices[index] = indices[totalSize - 1];\n    //     }\n    //     nonce++;\n    //     return value;\n    // }\n\n\n//         /**\n//      * @dev Set the base URI\n//      */\n//     function setBaseURI(string memory baseURI_) external onlyOwner() {\n//         _baseURIextended = baseURI_;\n//     }\n// }\n\n\n\n\n    // function _mint(address _to) public {\n    //     // uint id = randomIndex();\n    //     numTokens = numTokens + 1;\n    //     string memory tokenURITest = \"hello\";\n    //     // uint256 idtest = 0;\n    //     // _mint(_to, id);\n    //     // _setTokenURI(id,\"0\");\n    //     // _setTokenURI(idtest, tokenURITest);\n    //     // ++id;\n    //     // return id;\n    //     // Incrementing ID to create new tokenn\n    //     _tokenIdentifiers.increment();\n    //     // _mint(_to, tokenId);\n    //     uint256 newRECIdentifier = _tokenIdentifiers.current();\n    //     // _setTokenURI(id, uint2str(newRECIdentifier));\n    // }\n\n\n\n// constructor() ERC1155(\"https://gateway.pinata.cloud/ipfs/QmS7vBvBqbdcUm3zx3cwkUc9hiFp4eqSW7xGoB5Wv6dzzj/THC_NAZA_={id}.json\") {\n//     _mint(msg.sender, 1, 100, \"\" );\n// }\n",
  "sourcePath": "/Users/admin/Git_Downloads/THC_NAZA_Site/Verification/contracts/THC.sol",
  "compiler": {
    "name": "solc",
    "version": "0.8.1+commit.df193b15.Emscripten.clang"
  },
  "schemaVersion": "3.4.3",
  "updatedAt": "2021-10-23T02:35:53.582Z",
  "devdoc": {
    "kind": "dev",
    "methods": {
      "approve(address,uint256)": {
        "details": "See {IERC721-approve}."
      },
      "balanceOf(address)": {
        "details": "See {IERC721-balanceOf}."
      },
      "getApproved(uint256)": {
        "details": "See {IERC721-getApproved}."
      },
      "isApprovedForAll(address,address)": {
        "details": "See {IERC721-isApprovedForAll}."
      },
      "mintGenesis(address)": {
        "details": "Mints 1 Genesis NFT for 10BNB"
      },
      "mintNFT()": {
        "details": "Mints 1 NFT for 0.3 BNB"
      },
      "name()": {
        "details": "See {IERC721Metadata-name}."
      },
      "owner()": {
        "details": "Returns the address of the current owner."
      },
      "ownerOf(uint256)": {
        "details": "See {IERC721-ownerOf}."
      },
      "renounceOwnership()": {
        "details": "Leaves the contract without owner. It will not be possible to call `onlyOwner` functions anymore. Can only be called by the current owner. NOTE: Renouncing ownership will leave the contract without an owner, thereby removing any functionality that is only available to the owner."
      },
      "safeTransferFrom(address,address,uint256)": {
        "details": "See {IERC721-safeTransferFrom}."
      },
      "safeTransferFrom(address,address,uint256,bytes)": {
        "details": "See {IERC721-safeTransferFrom}."
      },
      "setApprovalForAll(address,bool)": {
        "details": "See {IERC721-setApprovalForAll}."
      },
      "supportsInterface(bytes4)": {
        "details": "See {IERC165-supportsInterface}."
      },
      "symbol()": {
        "details": "See {IERC721Metadata-symbol}."
      },
      "tokenURI(uint256)": {
        "details": "See {IERC721Metadata-tokenURI}."
      },
      "transferFrom(address,address,uint256)": {
        "details": "See {IERC721-transferFrom}."
      },
      "transferOwnership(address)": {
        "details": "Transfers ownership of the contract to a new account (`newOwner`). Can only be called by the current owner."
      },
      "withdraw()": {
        "details": "Withdraw BNB from this contract (Callable by owner)"
      }
    },
    "version": 1
  },
  "userdoc": {
    "kind": "user",
    "methods": {},
    "version": 1
  }
}